:020000040800F2
:1000000090080020D5000008453700087532000828
:1000100000000000000000000000000000000000E0
:10002000000000000000000000000000673B000826
:1000300000000000000000008D370008693B000848
:10004000E7000008E7000008E7000008E7000008F4
:10005000E7000008351300083F13000849130008A3
:10006000E7000008E7000008E7000008E7000008D4
:10007000E7000008E7000008E7000008E7000008C4
:10008000E7000008E7000008E7000008E7000008B4
:10009000E7000008E7000008E7000008E7000008A4
:1000A000E7000008E7000008E700000869440008CE
:1000B000E700000879440008E7000008E7000008AE
:1000C0000348854600F0D0FC004800472151000855
:1000D000900800200448804704480047FEE7FEE7F8
:1000E000FEE7FEE7FEE7FEE7CD3B0008C1000008A3
:1000F00030B50B46014600202022012409E00D46C0
:10010000D5409D4205D31D469540491B2546954047
:1001100040191546521E002DF1DC30BD70B500248B
:100120002546002801DA01244042002901DA012590
:100130004942FFF7DDFFAC4200D04042002C00D026
:10014000494270BD10B5202A04DB0846203AD04051
:10015000002110BD0B46D340D0402024A21A91406C
:100160000843194610BDD2B201E00270401C491E7E
:10017000FBD270470022F6E710B513460A46044644
:100180001946FFF7F0FF204610BD30B505462A4658
:100190000B4610781C78521C5B1C002801D0A04232
:1001A000F7D0002C03D0002802D06D1CEFE72846C2
:1001B00030BD421C0178401C0029FBD1801A7047D9
:1001C00010B5002200E0521C835C8C5CA34201D17C
:1001D000002BF8D1D8B2E1B2401A10BD30B50546B7
:1001E0000020034600E05B1C934205D2EC5CC85C37
:1001F000201A01D1002CF6D130BD0321001D401E74
:10020000037812021A43491EF9D51046704770B59B
:10021000064604F0DBFA046805460A22002130464F
:1002200000F09EFA2C6070BDF8B502464A40D40F2B
:1002300042004B0052085B089A4202D2024608462E
:1002400011464A0023D0C30D4A00DDB2120EAD1A8A
:10025000202D35DA49020126490AF6058A19002CB3
:1002600000D0524220214F1B1146B9402A4110189C
:10027000C20D9A4221D0002C17D0012D08DCDA05DE
:10028000801AD20F8019D207DBB200F0A9FAF8BDAC
:10029000DA05801A012340001B06C01880185A4254
:1002A0008018CA0F1043490007E04908C2071143EC
:1002B000DA05801A80194008801800F089FAF8BD24
:1002C00061000122511A001BF7E70122D2075140B9
:1002D000AAE70122D2075040A6E7024670B54A407D
:1002E000D30FDB0740002DD04A002AD0010E140E98
:1002F000000212020919400A520A8418E501044654
:100300005443000A120A2E045043A4194219200C27
:10031000C543AA18120C0125AD03521C5219120430
:100320007F39240400D0521C104301D44000491EE0
:10033000C2B20C06C0092018401C4008802A02D016
:1003400003E0002070BD40084000002900DA0020D2
:10035000184370BD70B502464A40D50F40004A00B0
:10036000ED0740085208002814D0002A12D0C40D0E
:10037000D30D41020120C0055202490A520AE41A73
:10038000091812187D34914201D3641C00E0490021
:10039000002C01DA002070BD0023914201D3891A9C
:1003A0000343400849000028F7D100290AD09142B0
:1003B00002D10121C90705E0914201D2012101E0EA
:1003C0000121C943E005C018401900F001FA70BDD1
:1003D000F0B507460846584087B0C00F0490480063
:1003E0000E46590040084908BC1A884105D23846D3
:1003F00031461E4617460B46024658004008104339
:100400004CD0300D039040055900400D490D05902A
:10041000401A0290402872DA18030121000B0905E6
:100420000843019004980092002805D00199524297
:100430000020884100920190029840210A1A0199F7
:10044000009800F06AF905460C466B4607CB00F0B1
:1004500074F9C0197141039A0E0D0023D717564045
:100460001A467A40164344D0049A002A2DD0029AA4
:10047000012A039A15DC1205C01A9141012636059E
:10048000001C7141D20F059ED20700930192029683
:100490002A46234600F0EAF907B0F0BD3846314657
:1004A000FAE71605224A0F46B218C01AB7410121D1
:1004B0000905001C4F4100187F4111461818794169
:1004C000E20F10436D19644113E0E2076D08154314
:1004D0006408C2071443039A01261205C01A914109
:1004E0003605001C7141CE07400830434908C0184A
:1004F00051412A46234600F0ACF9CDE7FFE70498C6
:1005000001224000C117121A00238B410498314682
:10051000C417381AA141EEE730B40124E407634060
:1005200030BC55E730B40124E407614030BC4FE7EC
:100530000000E0FFF0B51FB488B00B9909980024C3
:1005400048400999C00F490049080991C0070B9913
:100550000090490049080B9109990898A64608435C
:100560001CD00B990A98084318D009980124400020
:10057000420D4800410D099824050003000B20435B
:1005800009900B980003000B20430B9050181C4956
:100590004018002201901446104605E00020014654
:1005A0000DB0F0BD032801DA034600E003239C46AA
:1005B000C11A0AAE0AE05F0008ADED5B4F00F75BC1
:1005C0007D430027AA187C41491C5B1E6145F2DD72
:1005D000410004AB5A522104120C0A43240C401C63
:1005E0000828DFDB01980290009970460191009085
:1005F000059B049A0799069800F038F9D0E70000A7
:100600000DFCFFFFC217C10F504010B54018CA07BC
:100610009623002100F0E4F810BD10B500229623C7
:10062000114600F0DDF810BDC20F41004002012369
:10063000400ADB05D207090EC0187F2901DA002025
:100640007047962903DC9623591AC84001E0963971
:100650008840002AF4D040427047C20FD2074000C1
:1006600040080BD0C10D0723DB01C9184002090562
:10067000400A1143C2084007114370470020014659
:100680007047CB0FDB07490010B5490802460A4303
:1006900007D00A0D07240903E401090B121B002AE5
:1006A00001DC002010BDC900440F0C43C100E0185C
:1006B000D205801800F08CF810BDF0B51FB40646C6
:1006C000002082B005464024019100901BE0019972
:1006D00022460F463046FFF735FD049A059B801AE7
:1006E000994110D310461946224600F016F8361AE2
:1006F0008F410197224601200021009F00F00DF854
:1007000038184D4100902046641E0028DFDC019B14
:1007100000982946324607B0F0BD10B5202A04DB08
:100720000146203A9140002010BD914020239C1AA0
:100730000346E3401943904010BD10B5202A06DB64
:10074000CB170846203A1041C1170B4306E00B4671
:100750001341D0402024A21A91400843194610BDED
:10076000F7B5009C0F4600262578641C002D05D0A7
:1007700000F08CF90068405DC007F5D12B2D02D048
:100780002D2D18D0641E39462046029A00F082F9B9
:10079000002F04D03968A14201D100993960710558
:1007A000022400290BDA4042002803DD04F00EF891
:1007B0000460A007FEBD012080020643E3E7002895
:1007C000F8DA04F003F804600048FEBDFFFFFF7F85
:1007D000002904DA401C490001D14008400070475C
:1007E00070B40024050C05D11024000402D10029A6
:1007F00021D01124050E01D100020834050F01D1CA
:100800000001241D850F01D18000A41C002801DBFC
:100810004000641C002908D020252E1B0D46F54001
:10082000A14000D001212943084301061B1B000AF7
:10083000DB1D02D5002070BC7047DB05181880183E
:100840000029F8DA401C4900F5D170BC400840008E
:10085000704710B5002B08DA0024401C6141921843
:100860005B411A4301D14008400010BDF0B51FB4F0
:1008700082B005460C0003D0084603F083FF02E077
:1008800003F080FF20300246009021462846FFF703
:1008900044FF049B059A04460F461843114308433E
:1008A00014D0184610431BD0009840210A1A18464D
:1008B0000599FFF747FC05460E46009A05990498EE
:1008C000FFF72BFF084305D0012004E020463946FE
:1008D00007B0F0BD0020C11705430E432C4337433A
:1008E00000990E986305401A7905E40A00220C432A
:1008F000FD0A0A3002D500200146E9E7010510197A
:1009000069410C9C0D9D00196941FFF7A2FFDFE7CB
:10091000F0B50C465C4085B0E40FE40703944C004E
:10092000002664085900944649080246029622436C
:1009300021D062460A431ED06200570D4A000E03C2
:100940002303550D012402462C492405781B1B0B5B
:10095000360B401823432643614600901C46501A2C
:10096000B44103D30098401C009002E09218009814
:100970005B41002803DA0020014605B0F0BD0020ED
:10098000012109050746864611E064461D46141BF1
:10099000B54106D36546521BB341744607430C4329
:1009A000A646CD0740084908284392185B410546F2
:1009B0000D43EAD11046184313D060461946504003
:1009C0007140084306D06046101AB34106D2012296
:1009D000002306E000220123DB0702E00122D243CC
:1009E0005310009874460105381C6141029C039D18
:1009F00000196941FFF72DFFBFE70000FD0300006C
:100A00004A0009030123090B1B0519430A4B10B5C2
:100A1000520D9A4202DA0020014610BD064B3433D3
:100A20009A4203DC9A1AFFF78DFB10BD034BD218D4
:100A3000FFF773FE10BD0000FF030000CDFBFFFFBA
:100A400010B5002904DB0124E40740428C41214613
:100A5000002B04DB1C460123DB075242A3419942D1
:100A600000D1904210BD0000064C0125064E05E065
:100A7000E36807CC2B430C3C98471034B442F7D3BF
:100A8000FFF722FBA4600008C4600008004870471C
:100A90004C600008F7B582B0029C00272078641CE7
:100AA00015460197302802D0002D15D015E020788A
:100AB0000127641C782804D0582802D0002D09D0C2
:100AC0000BE0002D01D0102D07D100271025207834
:100AD000641C02E0082500E00A250026009610E0CC
:100AE0000099012769430818020C294680B2714316
:100AF00000908E183804864201D30120019020789E
:100B0000641C294600F019F80028E9DA0398002847
:100B100005D0002F01D0641E00E0029C0460019803
:100B2000002806D003F052FE02210160C81E05B065
:100B3000F0BD009930040843F9E73A2800D2303874
:100B4000202302469A43412A01D31046373888426F
:100B500001D30020C043704770B504460068816827
:100B6000490720D5816810264907002905DA8168E0
:100B7000890702D481683143816000F053FF054644
:100B80000DE000F04FFF401B022808D9606C304395
:100B90006064A06C01210843A064084670BD206811
:100BA00080684007EDD4002070BDF8B504460068A9
:100BB00081688907890F012928D10168C90702D1F5
:100BC000C168090422D5816805221140102501263B
:100BD00001290FD18168022211438160216803201D
:100BE000086000F01FFF07460CE000F01BFFC01B71
:100BF000022807D9606C28436064A06C3043A0646D
:100C00000120F8BD20688068C007EED10020F8BD43
:100C1000F8B5044600200090206881688907890F94
:100C2000012905D10168C9072CD1C168090429D45B
:100C30008168154A102611400125002915D18168C7
:100C400029438160124811490068FFF751FA00E01A
:100C5000401E00900028FBD100F0E4FE07460CE0A7
:100C600000F0E0FEC01B022807D9606C30436064CE
:100C7000A06C2843A0640120F8BD20680068C04330
:100C8000C007EDD10020F8BD1700008040420F00E2
:100C90003C00002070B50446012189023148012C36
:100CA00040D000220E46054600F0B5FE502C32D052
:100CB000642C39D06E2C1ED0782C52D101223146B2
:100CC000284600F0A8FE322000F0D5FD0022314673
:100CD000284600F0A0FE322000F0CDFD0122314672
:100CE000284600F098FE322000F0C5FD0022314673
:100CF000284600F090FE01223146284600F08BFE87
:100D0000322000F0B8FD00223146284600F083FE74
:100D1000322000F0B0FD01223146284600F07BFE73
:100D2000322017E001221AE001223146284600F065
:100D300072FE962000F09FFD00223146284600F00A
:100D40006AFE962000F097FD01223146284600F009
:100D500062FE962000F08FFD00223146284600F00A
:100D60005AFE70BD0004004870B5204C00250121DA
:100D7000607900F0B3FA962000F07DFD03206071E9
:100D8000002100F0ABFA022000F075FD18499F2009
:100D90000870FF23F5330122164801F021FC1449A5
:100DA0007D23DB0003226431124801F06DFB012139
:100DB000607900F093FA21461F20283108708520C1
:100DC0004870012088700A49643108781F2806D1CC
:100DD0004878852803D18878012800D10125012190
:100DE000607900F07BFA284670BD0000000000200A
:100DF000C8000020FC010020F0B5C44CBFB0A079B1
:100E000001286ED1C24F00263878232809D0C1A10D
:100E10003846FFF7BAF9002870D03B46BFA1226AD6
:100E20004DE1C7A1BA48FFF7CBF9002824D0C6A1ED
:100E3000B748FFF7C5F9002837D0C5A1B448FFF778
:100E4000BFF9002837D0C4A1B148FFF7B9F900288D
:100E500048D0C3A1AE48FFF7B3F9002848D0C2A1DB
:100E6000AB48FFF7ADF9002849D0C1A1A848FFF76A
:100E7000A7F9002849D05DE0A54AC0A1684603F063
:100E80006DFC642000F0F7FC6846FFF792F982B22F
:100E90009F4864236946703802F087F9012020706A
:100EA0002661A66102F026FC44E0012002F022FC4B
:100EB000974AB8A12BE0002002F01CFC944ABAA18A
:100EC000684603F04BFC642000F0D5FC6846FFF751
:100ED00070F982B28E4864236946703802F065F971
:100EE00028E011E1022002F005FC894AB3A10EE0DE
:100EF000032002F0FFFB864AB6A108E0D6E00420FA
:100F000002F0F8FB824AB9A101E0814ABDA168461E
:100F100003F024FC642000F0AEFC6846FFF749F9BA
:100F200082B27B4864236946703802F03EF9206A39
:100F3000401C206278785A2858D1B87852283BD182
:100F4000B6A17348FFF73CF9002812D0B6A170484B
:100F5000FFF736F9002828D0B5A16D48FFF730F922
:100F6000002824D0B4A16A48FFF72AF9002820D02D
:100F700022E0032002F030FC022002F02DFC0120D0
:100F800002F02AFC624AAEA1684603F0E7FB642047
:100F900000F071FC6846FFF70CF982B25C486423EC
:100FA0006946703802F001F906E0032002E00220F1
:100FB00000E0012002F010FCB8785728BCD10622CE
:100FC000A6A15348FFF70AF9514D683500280ED005
:100FD0000622A4A14E48FFF701F9002826D00622D8
:100FE000A2A14B48FFF7FAF800283ED086E0012086
:100FF00002F0F2FBB81DFFF70AF901466860012014
:1010000003F06EFA424A9BA1684603F0A7FB6420F6
:1010100000F031FC6846FFF7CCF882B23C4864230C
:101020006946703802F0C1F801203CE0022002F06D
:10103000D3FBB81DFFF7EBF80146A860022003F0D0
:101040004FFA334A8BA1684603F088FB642000F016
:1010500012FC6846FFF7ADF882B22D48642369465A
:10106000703802F0A2F802201DE0032002F0B4FB69
:10107000B81DFFF7CCF80146E860032003F030FA12
:10108000234A7CA1684603F069FB642000F0F3FB6F
:101090006846FFF78EF882B21D48642369467038AF
:1010A00002F083F8032002F097FB27E078A11848AC
:1010B000FFF76BF8002806D0154B226A77A1684627
:1010C00003F04CFB0AE080A11148FFF779F80028F3
:1010D00014D10F4A7EA1684603F040FB642000F063
:1010E000CAFB6846FFF765F882B20948642369467F
:1010F000703802F05AF8206A401C20622671632181
:101100000348FFF737F8A6713FB0F0BD000000209C
:10111000000400204552524F520000000D0A2323C4
:10112000234552522D464F554E442D313520202512
:1011300064203A3C3C25733E3E205D0D0A200000B1
:101140002354310D0A000000234D313D310D0A00BA
:10115000234D313D300D0A00234D313D320D0A0043
:10116000234D313D330D0A00234D313D340D0A002E
:10117000234D313D2D310D0A0000000021547265D0
:1011800061746D656E74205374617274230D0A204E
:1011900000000000214D6F746F725B315D2053744D
:1011A000617274230D0A2000214D6F746F725B31E0
:1011B0005D204F6666230D0A20000000214D6F74EC
:1011C0006F725B315D2050574D203735230D0A205B
:1011D00000000000214D6F746F725B315D2050572D
:1011E0004D203530230D0A2000000000214D6F7482
:1011F0006F725B315D2050574D203235230D0A2030
:1012000000000000214D6F746F725B315D205265EC
:101210007665727365230D0A20000000235A523D43
:10122000414C4C0D0A000000235A523D410D0A006A
:10123000235A523D520D0A00235A523D4D0D0A00C9
:1012400052656164206D656D6F72792066726F6D95
:101250002063732025730D0A20000000235A573D98
:101260004D2C0000235A573D522C0000235A573D65
:10127000412C0000577269746520746F20206D65E1
:101280006D6F7279202063732025730D0A20000092
:1012900053454E44204641494C0000000D0A23238B
:1012A0002353454E44204641494C2D464F554E440C
:1012B0002D323520202564203A3C3C25733E3E20CB
:1012C0005D0D0A200000000041540D0A00000000DE
:1012D000216F2E6B230D0A200000000010B501289D
:1012E0000AD0022811D003280ED1FF230B48013366
:1012F000012905D0002204E001231B030848F7E779
:101300000122194600F087FB10BD0648012902D0D2
:1013100000220421F6E70122FBE700000004004858
:1013200000080048000C0048884201D101207047A5
:101330000020704710B5022000F0ACFA10BD10B5C7
:10134000042000F0A7FA10BD10B51B4841694906FA
:1013500003D51A490A68521C0A604169090503D578
:1013600017490A68521C0A6016490978012910D1E8
:101370004069C0040DD51448144A04781448136811
:1013800001685B1C002C15D0002902DD491E01609C
:1013900013600124E40209202146C00600F032FB5C
:1013A000204600F077FA600000F074FAE00000F0E8
:1013B00071FA10BD491CEAE700040140300000202A
:1013C0001000002002000020010000201400002076
:1013D00018000020F8B50025044640340095227816
:1013E000012A3BD00122227003689E68760776D4DA
:1013F0003F4F4E68BE4254D09E6A0F78BA401643A3
:101400009E620123826B1B079A421FD0012A1DD0C6
:10141000022A1BD0032A19D0042A17D0052A15D076
:10142000062A13D0072A11D002688B6856697607FE
:10143000760FB3420AD05369DB08DB0053610068C2
:1014400042690B7A5B075B0F1A43426108681028F8
:1014500006D0112804D0122802D045E00220F8BDA1
:10146000244A9368102809D011280AD001200006C8
:10147000034393600868102806D035E00120C005BA
:10148000F6E701208005F3E71C481B490068FEF7DA
:101490002FFE0A21484300E0401E00900028FBD1A7
:1014A00022E0986A0E78B24090439862086810284B
:1014B00003D0112801D0122816D10E498A681028AD
:1014C00007D0112808D00120000682438A600BE073
:1014D00005E00120C005F8E701208005F5E7416C33
:1014E0002022114341640125002020702846F8BDC8
:1014F000011000000027014040420F003C00002086
:101500000068006C70470000F8B50025044600280C
:1015100003D0606C002802D008E00120F8BD002054
:10152000A06440210855204600F0A8F8606C102205
:10153000C006002870DB2068816849076CD4616CA4
:101540001301994302231943616481688907890F54
:10155000012905D10168C9070FD1C16809040CD45C
:10156000C16818239943A3681943C16020680169C1
:10157000636889008908194301612068C1683D4B8F
:101580001940C160A069E1698003C9030843216A69
:101590004B031843636B012B02D001231B0300E0B4
:1015A00000231843E36818432369022B09D0002362
:1015B0001843236B666A5B0018430123012E02D097
:1015C0000AE00423F4E7002927D0616C2026314388
:1015D0006164A16C1943A164A16A0E46FF3EC23E3C
:1015E00002D0E66A314308432168CE680643CE60E4
:1015F0000126A16B3607B14213D0012911D002296F
:101600000FD003290DD004290BD0052909D00629B4
:1016100007D0072905D010E028E00121090408437C
:10162000DAE721684E69F608F6004E6121684E69D6
:10163000278F7F077F0F3E434E612168C9680E4E9A
:101640003140814207D10020A064606C8008800096
:10165000401C606408E0606C0221884310436064B1
:10166000A06C1843A06401252846F8BD606C1043A7
:101670006064F8E71902FEFFE7FF3F8310B586B00C
:10168000044614216846FEF775FD0F49206888421C
:1016900017D10E48826941150A43826182690A4066
:1016A0000592426989020A434261406908400590F7
:1016B000032000900190002002906946044800F049
:1016C000F5F806B010BD00000024014000100240F3
:1016D00000080048F8B504464069254640350E46E6
:1016E00008280BD02068C068C00709D0606C202192
:1016F00008436064002028700120F8BD082700E03E
:101700000C2700F08FF9009011E0701C0FD0002E14
:1017100005D000F087F90099401AB04207D9606CF3
:10172000042108436064002028700320F8BD20686D
:1017300000683842E9D0606C0121490208436064C6
:101740002068C16809058A0F0C21002A1AD1226A73
:10175000002A17D10268120714D5826853070122A4
:10176000002B08DB43688B434360606C1302984393
:101770001043606406E0606C202318436064A06C32
:101780001043A064A069002801D1206801600020F6
:10179000F8BD000070B5044621680020896849073B
:1017A00021D425464035297801291CD001212970F2
:1017B000E169012904D02046FFF72AFA002811D157
:1017C000616C0A4A1140FF22013211436164002119
:1017D000A164297022681C21116021688A68042391
:1017E0001A438A6070BD022070BD0000FEF1FFFF49
:1017F00070B50546044640352878012807D00126F3
:101800002E702046FFF7A8F9002802D00CE0022035
:1018100070BD2046FFF7C9F9002805D1616CFF2291
:1018200001329143314361640021297070BD70B56C
:101830000024014620314A78022A03D00421816322
:10184000012416E0026813680E25AB43136002689A
:1018500013685B085B0013600122056C1346AB4004
:10186000C56B6B604A7000220A70416B002900D082
:101870008847204670BD31B500F0D4F8009C05467D
:10188000601C00D0641C00F0CDF8401BA042FAD3CD
:1018900038BD704710B504494A69024202D0486118
:1018A000FFF7F7FF10BD000000040140F8B500236A
:1018B00093E0224601249C40A44622407ED04C68FE
:1018C000022C01D0122C0CD1DC08A40027183C6A91
:1018D0005D07ED0E0F26AE40B4430E69AE402643C1
:1018E0003E6205685E000324B4400F79A543BF073C
:1018F000BF0FB7402F4307604D68012D05D0022D63
:1019000003D0112D01D0122D0ED18568CF68A543CB
:10191000B7402F43876047686546AF430D79ED06B2
:10192000ED0F9D403D434560C568A5438C68B440BC
:101930002C43C4604C68E4004ED52B4CA5690126AD
:101940003543A561A4699D0834400094274CAD003F
:101950002F19BC689D072E0F0F25B540AC430925F4
:10196000ED06A84201D1002514E0214DA84201D185
:1019700001250FE01F4DA84201D102250AE01E4DAE
:10198000A84201D1032505E01C4DA84201D1042540
:1019900000E00525B5402543BD60194C25684E681B
:1019A0009543F60300D51543256065684E68954359
:1019B000B60300D515436560A56800E00CE04E68ED
:1019C0009543F60200D51543A560E5684E6895433A
:1019D000B60200D51543E5605B1C0A681446DA4080
:1019E00000D066E7F8BD0000001002400000014092
:1019F0000004004800080048000C0048001000489F
:101A0000000401400069084000D00120704742698D
:101A10004A4042617047002A01D08161704781626B
:101A2000704700000148006870470000380000203F
:101A300002480168491C016070470000380000201E
:101A400010B506480168102211430160002000F023
:101A500007F800F017F8002010BD00000020024039
:101A600010B5044600F06AF97D21C900FEF740FB7D
:101A700000F092FF00222146501E00F021F80020C5
:101A800010BD000008B50848816901221143816139
:101A9000816911400091C26901040A43C261C069B1
:101AA0000840009008BD000000100240C106C90EA9
:101AB00001208840014908607047000000E100E013
:101AC00010B501F041FE10BDF8B504460068434D65
:101AD000C00352D5E8690026C00007D4E96928048C
:101AE0000143E961E9690140012600913C48016830
:101AF000C90510D40168821511430160FFF792FFF8
:101B0000074604E0FFF78EFFC01B642824D8344842
:101B10000068C005F6D5286A03273F02384020D068
:101B20006168394081421CD0286A2A6AB843012181
:101B300009040A432A622A6A8A432A622862C00781
:101B40000FD0FFF76FFF009008E0FFF76BFF0099E1
:101B5000411A2448814201D90320F8BD286A800730
:101B6000F3D5286A6168B84308432862002E04D080
:101B7000E869012109078843E8612078C00705D09A
:101B8000286BA168800880000843286320788007BC
:101B900006D5286B032109048843E16808432863BC
:101BA0002078800605D5286B1021884321690843D9
:101BB00028632068800305D5286B80218843A169AC
:101BC000084328632088400505D5286B40218843B9
:101BD0006169084328630020F8BD0000001002403E
:101BE0000070004088130000F8B505464E480E46C8
:101BF0000068C007C00FB0420AD24B4801684908CC
:101C00004900314301600068C007C00FB04270D185
:101C10002878464C800705D56068F0218843A9687C
:101C2000084360602878C00753D06868012817D03F
:101C3000022818D0032819D021688907002958DA0A
:101C400061688908890001436160FFF7EBFE6968FC
:101C50000746012913D002291DD0032927D034E0DB
:101C600021688903EAE721688901E7E7616BC90315
:101C7000E4E7FFF7D7FEC11B2D48814223D86068F7
:101C80000007800F0128F4D123E0FFF7CBFEC11B32
:101C90002748814217D860680007800F0228F4D1D6
:101CA00017E0FFF7BFFEC11B214881420BD86068D7
:101CB0000007800F0328F4D10BE0FFF7B3FEC11B30
:101CC0001B48814201D90320F8BD60680007800FDE
:101CD000F3D115480168C907C90FB1420BD9016892
:101CE00049084900314301600068C007C00FB04295
:101CF00001D00120F8BD2878400706D5606807218B
:101D000009028843E9680843606000F02DF86168C3
:101D1000084A0906090F515CC840074908600020BD
:101D2000FFF79EFE0020F8BD002002400010024098
:101D300088130000B05F00083C00002001480068E4
:101D4000704700003C0000200448054900684968CD
:101D5000044A4905490F515CC84070473C000020C7
:101D600000100240C05F000830B516A30FCB89B049
:101D70006C460FC417A30FCB0FC41A494A680C2036
:101D8000144604401848042C05D0184B082C04D0E5
:101D90000C2C00D1184609B030BD9402240F6D46BA
:101DA0002C5DC96A04AD0907090FD203695C920F63
:101DB000022A02D0032A00D11846FEF799F960439F
:101DC000E9E7000002030405060708090A0B0C0DE9
:101DD0000E0F10100102030405060708090A0B0C78
:101DE0000D0E0F100010024000127A00006CDC0291
:101DF000FEB504460078F04EF04DC00748D0686844
:101E00000007800F01281FD068680007800F022894
:101E100004D16868C003800F022815D061680129C9
:101E200019D001208004002901D0052917D0296884
:101E3000B1432960296881432960606800281BD06C
:101E4000FFF7F0FD074613E02868800320D560689F
:101E5000002876D01CE0286830432860EDE7296828
:101E600001432960F7E7FFF7DDFDC01B642869D84F
:101E700028688003F7D50BE0FFF7D4FD074604E0A0
:101E8000FFF7D0FDC01B6428F1D828688003F7D481
:101E9000207880073ED568680007800F14D06868F6
:101EA0000007800F022804D16868C003800F012852
:101EB0000AD0E068002828681DD001210843286066
:101EC000FFF7B0FD07460BE0286880070BD5E068F8
:101ED000012836D107E0FFF7A5FDC01B0228C6D8B0
:101EE00028688007F7D52868F82188432169C90048
:101EF000084328600EE0400840002860FFF792FD8C
:101F0000074604E0FFF78EFDC01B0228AFD8286803
:101F10008007F7D42078000724D5E0690028686A94
:101F200011D0012108436862FFF77CFD074604E0F9
:101F3000FFF778FDC01B022899D8686A8007F7D59B
:101F400010E036E1D1E0400840006862FFF76AFD2A
:101F5000074604E0FFF766FDC01B022887D8686AC1
:101F60008007F7D4207804274007002861DA002092
:101F70000190E869C00008D4E969B8060143E96145
:101F8000E96901400120009101908D480168C9056F
:101F900011D40168821511430160FFF743FD0090E1
:101FA00005E0FFF73FFD0099401A642897D8844860
:101FB0000068C005F5D5A06801280AD0002801D026
:101FC000052811D0286A400840002862286AB843D2
:101FD00002E0286A012108432862A068002812D084
:101FE000FFF720FD00900AE0286A38432862F0E7F6
:101FF000FFF718FD0099411A7248814275D8286A86
:102000008007F5D50DE0FFF70DFD009006E0FFF726
:1020100009FD0099411A6B48814266D8286A8007F9
:10202000F5D40198002804D0E96901200007814314
:10203000E9612078C00635D5606901280CD0401DC3
:10204000686B24D038436863686B4008400068635D
:10205000FFF7E8FC074622E0686B38436863686B6B
:10206000012108436863FFF7DDFC074604E0FFF742
:10207000D9FCC01B022838D8686B8007F7D5686B7D
:10208000F8218843A169C900084368630AE0B8439E
:102090006863F4E7FFF7C6FCC01B022825D8686B0D
:1020A0008007F7D42078800637D568680007800F4E
:1020B000032813D068680007800F022804D16868DD
:1020C000C003800F032809D0206A0028686B16D04F
:1020D00030436863FFF7A6FC06460CE0686BC0035C
:1020E0001BD5206A012864D117E05BE0FFF79AFC5A
:1020F000801B022856D8686BC003F7D50DE0B043AB
:102100006863FFF78FFC064604E0FFF78BFC801B3B
:10211000022847D8686BC003F7D4606A002846D00D
:1021200069680907890F022943D00126360602286B
:10213000286805D0B0432860FFF774FC044633E0FC
:10214000B0432860FFF76EFC074604E0FFF76AFC27
:10215000C01B022826D828688001F7D4E86A216BC2
:10216000000900010843E862A16AE06A084369685F
:102170007B22D2039143084368602868304328607B
:10218000FFF750FC044604E0FFF74CFC001B02285C
:1021900008D828688001F7D509E0FFF743FC001B49
:1021A000022801D90320FEBD28688001F5D4002053
:1021B000FEBD0120FEBD0000000001000010024035
:1021C000007000408813000010B500680B4640689E
:1021D000C021C94301400002000ECC04D870E40EB7
:1021E0005C708C06A40E0904490F9C701970002ABB
:1021F0000AD101F0CCFAD870587801F0C8FA5870BA
:10220000987801F0C4FA9870002010BD30B50B46E4
:102210000168896A5960016809694904490C996033
:10222000006804680F482146014088024D04800E72
:1022300018706D0E49065D70490E99706102490E65
:1022400040242140D970002A0AD101F0A0FA187068
:10225000587801F09CFA5870987801F098FA9870C4
:10226000002030BD7F7F7F0070B5040003D0607F09
:10227000002802D006E0012070BD00202077204613
:1022800000F04CF8022060772168CA20486221687B
:1022900053204862204601F082FAFF2504260028D8
:1022A00024D1206881681C4A1140816021688868B7
:1022B00062686369104322691A4310438860216889
:1022C000E0680861206801692289120411430161F4
:1022D0002068C16880229143C160206880688006C0
:1022E00008D4204600F02AF8002803D02068456270
:1022F0006677C0E72068016C012292049143016473
:102300002068016CA26911430164206845620120C4
:102310006077002070BD0000BFFF8FFF0068054997
:10232000884205D10448016A0122D20311430162A7
:1023300070470000002800400010024070B50446BD
:102340000068C168A0229143C160FFF76BFB7D2646
:102350000546F60006E0FFF765FB401BB04201D9D9
:10236000032070BD2068C0688006F4D5002070BDD1
:10237000F8B5040007D0002625464035A662687FE0
:10238000002802D005E00120F8BD2E77204600F09D
:102390004BF802236B77206801684022914301606B
:1023A0000721E0680902884201D9002201E00122E8
:1023B00012030F273F02B84202D0884200D0A66223
:1023C000276B002F05D1884201D9236301E001204A
:1023D0002063A16860686369084321691943084361
:1023E0000123A1695B0219400843E1690843216A9E
:1023F0000843A16A084321680860616B606AA369A9
:1024000008431B0C0427E1683B401943084321683B
:10241000104348602068C1697A029143C161266611
:10242000012068770020F8BD10B586B0044614215D
:102430006846FDF79FFE1149206888421BD110486D
:10244000826981140A43826182690A400592426965
:1024500089010A4342614069084005903820009094
:10246000022000210190032002910491039069460B
:102470000448FFF71BFA06B010BD00000030014011
:102480000010024000040048FFB504460E464068B4
:10249000FF21254600270531403581B0884202D111
:1024A000A06800280CD0287F012815D001202877AB
:1024B000FFF7B8FA0090687F01280FD0022789E063
:1024C0000420687704980090324611462046039B0A
:1024D00000F03EF905B0F0BD0220FBE7002E78D0F9
:1024E0000398002875D004206877002020662664B1
:1024F0000399A9800399E980A063A087E087E0643D
:10250000206507200121E268000209038242226857
:10251000536801D98B4300E00B4353600122A1684B
:10252000D203914205D121680A6801239B039A4393
:102530000A6021680A68520603D40A6840231A43D5
:102540000A60E168814218D934E020688168C907CF
:1025500006D0007B3070E888401EE880761C0CE0D6
:102560000498002824D0401C07D0FFF75BFA0146EE
:102570000098091A049881421AD2E8880028E4D108
:102580001BE020688168C90706D0C0683080E888F1
:10259000401EE880B61C0DE00498002808D0401CBE
:1025A00008D0FFF73FFA0099411A0498814201D3FD
:1025B00003270FE0E8880028E3D12046009A049919
:1025C00001F0DEF9002801D020202066206E0028CE
:1025D00000D001270120687700202877384679E766
:1025E000FFB5064604464036307F002781B00D46D1
:1025F000012809D001203077FFF714FA0090707F8E
:10260000012804D002279DE0022005B0F0BD002D76
:1026100072D0039800286FD00320707700202066C6
:10262000A5630399A1870399E1872064B080F080B6
:102630002065E0640121A068C903884205D12068B3
:102640000168012292031143016020680168490674
:1026500003D401684022114301600720E1680002B1
:102660008142606823D9002802D0E08F01281AD166
:1026700021682888C86005E020688168890706D538
:102680002988C160E08F401EE087AD1C0BE00498F4
:1026900000283ED0401C06D0FFF7C4F90099411A2B
:1026A0000498814235D2E08F0028E5D136E0002839
:1026B00002D0E08F01282ED1E08F012803D92168B4
:1026C0002888C8600CE02168287808730FE020682B
:1026D0008168890711D5E18F012906D92988C16050
:1026E000E08F801EE087AD1C15E029780173E08F34
:1026F000401EE0876D1C0EE023E00498002808D0FF
:10270000401C08D0FFF78EF90099411A04988142C5
:1027100001D3032716E0E08F0028D8D12046009A85
:10272000049901F069F9002801D020202066A068F2
:10273000002803D12068C16880680090206E0028BE
:1027400000D00127012070770020307738465CE701
:10275000FFB5044683B00120254640350090287F10
:1027600000270E4601280FD001202877FFF75AF9DD
:102770000190687F616801280DD0CA1FFD3A08D119
:10278000A168002905D102E0022007B0F0BD0428AD
:1027900001D00227FAE0002E7CD005980028FBD05B
:1027A00006980028F8D0687F042801D005206877B3
:1027B00000202066059921640699E9800699A98080
:1027C000A6630699E1870699A187E064206507233F
:1027D000E1681B02994202D8E888012806D92068DE
:1027E0004268012109038A43426005E0206841688C
:1027F000012212031143416020680168490603D495
:102800000168402211430160E1686068994242D941
:10281000002802D0E08F012835D121683088C860B7
:10282000E08F401EE087B61C2DE0009800280ED0F7
:10283000E08F00280BD020688168890707D5318890
:10284000C160E08F401EE0870020B61C0090E88841
:1028500000280ED020688168C9070AD0C068059991
:1028600008800598801C0590E888401EE8800120BB
:1028700000900C98401C06D0FFF7D4F80199411A3B
:102880000C9881426DD2E08F0028CED1E8880028D4
:10289000CBD16EE079E0002802D0E08F012862D130
:1028A000E08F012807D921683088C860E08F801E3A
:1028B000E087B61C57E0216830780873E08F401E2F
:1028C000E087761C4FE00098002818D0E08F0028A1
:1028D00015D020688168890711D5E18F012906D9B3
:1028E0003188C160E08F801EE087B61C05E031783A
:1028F0000173E08F401EE087761C00200090E8887E
:10290000002824D020688168C90720D0E9880129DF
:1029100012D9C068059908800598801C0590E88840
:10292000801EE880E88801280FD8206841680122CD
:1029300012031143416008E0017B0598017005987E
:10294000401C0590E888401EE880012000900C980B
:10295000401C08D0FFF766F80199401A0C9988428C
:1029600001D3032712E0E08F0028ACD1E8880028CB
:10297000A9D12046019A0C9901F03EF8002801D017
:1029800020202066206E002800D0012701206877D3
:10299000002028773846F8E6094910B5401E8842DD
:1029A00001D9012010BD074C60610321081F00F010
:1029B000CBFE0020A06107202061002010BD000098
:1029C000FFFFFF0000E000E070B502462032137FF9
:1029D000012B1BD001231377022454770468656808
:1029E0007026B5436560046865680E6835436560A8
:1029F0000468A5688026B543A560006884684968B6
:102A00000C43846053770020107770BD022070BDA6
:102A100070B5040005D025462035687F002802D017
:102A200006E0012070BD00202877204600F00AF85B
:102A300002206877211D206801F0F6F801206877F0
:102A4000002070BD10B586B0044614216846FDF71D
:102A500091FB012122688907194801238A4205D187
:102A6000C1691943C161C069184008E0154C0221D1
:102A7000A24207D1C2690A43C261C06908400590F9
:102A800006B010BD104CA242FAD184690122120492
:102A9000144384618469144005944469920014438A
:102AA00044614069019110400590D01000900020D1
:102AB00002900390694604930448FEF7F7FEDFE7AF
:102AC00000100240000400400040014000040048A3
:102AD000F8B5054604462035287F012817D0012780
:102AE0002F7702206877226890687726FF23B0430B
:102AF0001B02984390600868502837D00EDC2028CD
:102B000057D006DC00284ED0102840D14EE00220DD
:102B1000F8BD302850D0402839D13CE060282DD075
:102B2000702817D001221203801A0ED090422ED1A5
:102B3000CB684A688968206801F0CBF82068816812
:102B4000012292031143816021E020688168C90855
:102B5000C900F8E7CB684A688968206801F0B9F8CD
:102B600021688868B0433043886010E0CA684968CB
:102B7000206801F0FAF95021206806E0CA68496827
:102B8000206801F02FFA6021206801F0ADF86F771E
:102B900000202877F8BDCA684968206801F0E5F987
:102BA00040212068F1E700212068EEE7102120682D
:102BB000EBE720212068E8E730212068E5E7F8B559
:102BC000064604462036307F0D4601283DD00120C0
:102BD000307702207077002A39D0042A46D0082A9C
:102BE00057D02B68297B20689E468C466B68016A0B
:102BF0000122120391430162C169026A03273F0265
:102C0000B9431B020B430F2109038B43614609079C
:102C1000090C194305235B039A4373460A273B407B
:102C20001B031343C16103622068C169032292023E
:102C30009143C1612068C169AA6812021143C16150
:102C40000120707700203077F8BD0220F8BDEB68D6
:102C500006CD083D206801F099F9206882690C21B1
:102C60008A43826120688169AA680FE0EB6806CD1B
:102C7000083D206801F0C9F92068826903218902B2
:102C80008A43826120688169AA68120211438161C6
:102C9000D6E788CD287921688446086AFF22013268
:102CA00090430862C8690A6A800880003843F027A8
:102CB000B84367463F073F0E074305204002824363
:102CC0000A20034018021043CF6108622068C169DE
:102CD0000C229143C1612068C1692A68AEE770B5D2
:102CE000040005D025462035687F002802D006E084
:102CF000012070BD00202877204600F00AF802204D
:102D00006877211D206800F08FFF01206877002080
:102D100070BD704730B587B0044614216846FDF792
:102D200029FA01222168920700241E4802259142B7
:102D300021D1426949130A43426142690A4005921E
:102D4000426949000A434261406902940840059083
:102D50002020009009200195694604950394C0063F
:102D6000FEF7A4FDA802009002940195694604951F
:102D700003940D4812E00D4A914211D14269C912E3
:102D80000A43426140690294084005900320000212
:102D9000009003946946019504940548FEF786FD6A
:102DA00007B030BD0010024000040048000400409D
:102DB00000080048F8B5064604462036307F0D4628
:102DC00001280DD001203077022070770427002AD7
:102DD00008D0042A16D0082A2AD00C2A4DD137E070
:102DE0000220F8BD206800F087FF20688169082272
:102DF0001143816120688169B943816120688169DB
:102E00002A6912E0206800F0BBFF20688269012176
:102E1000C9020A43826120688169012292029143BA
:102E20008161206881692A6912021143816124E06D
:102E3000206800F0E5FF2068C26908210A43C261EA
:102E40002068C169B943C1612068C1692A6912E07B
:102E5000206801F017F82068C1690122D2021143ED
:102E6000C1612068C269012189028A43C261206868
:102E7000C1692A6912021143C161012070770020E3
:102E80003077F8BD70B5040005D025462035687F41
:102E9000002802D006E0012070BD002028772046DF
:102EA00000F00AF802206877211D206800F0BCFEBF
:102EB00001206877002070BD7047000010B50446FF
:102EC0000068012200F0FAFE0C482168814208D017
:102ED0000B48814205D00B48814202D00A4881420A
:102EE00004D1486C0122D203104348642068016871
:102EF000012211430160002010BD0000002C0140A0
:102F000000400140004401400048014070B50546C2
:102F100004462035287F012814D001262E77022070
:102F20006877204600F0E4FF2068C16840229143A2
:102F3000C1602068C16812029143C1606E770020B1
:102F4000287770BD022070BD70477047F8B50368E0
:102F50000446D869196805072D0F07D1820605D5E3
:102F60008A0603D5204601F02FF9F8BD9A68002D96
:102F700064D0D507ED0FFF2621360E402E435DD0DD
:102F8000C60706D0CE0504D501261E62E36E334384
:102F9000E366870702230426002F06DAD70704D04A
:102FA00027683B62E76E3743E766470706D5D207D7
:102FB00004D022681662E26E1A43E266020709D55F
:102FC00020220A402A4305D0236808221A62E36EB1
:102FD0001343E366E26E002AC7D0800604D5880654
:102FE00002D5204601F0F0F8E06E000703D4206817
:102FF000806840061CD5204601F0CAF82068816828
:10300000490611D58168402291438160606E002895
:103010000AD01A494163606EFEF709FC0028A4D06B
:10302000606E416B8847F8BD2046FFF78EFFF8BD04
:103030002046FFF78AFF0020E066F8BDC5020DD5E7
:1030400052020BD501200005186220212046603075
:10305000417281722046FFF777FFF8BD020605D561
:103060000A0603D5204601F09BF9F8BD4006FCD5C1
:103070004806FAD5204601F09AF8F8BD7D410008CF
:1030800070B5040005D025466035687A002802D066
:1030900006E0012070BD00202872204600F026F8CE
:1030A00024206872206801684908490001602046B0
:1030B00001F0C8F80128EDD0606A002802D020464F
:1030C00000F0BDFF206841680922D20291434160AF
:1030D000206881682A22914381602068016801226A
:1030E00011430160204601F00FF870BD30B587B084
:1030F000044614216846FDF73DF8274D226800215B
:10310000264802240323AA4220D18569620315437D
:1031100085618569154005954569D200154345616E
:1031200040690291104005905802009001200490DF
:103130000920019403936946C006FEF7B7FB0022FD
:1031400011461B20FEF7BCFC1B2021E0144DAA42B7
:1031500020D1C5690122D2041543C561C569154056
:1031600005954569154345614069029110400590F8
:10317000032080020491009001940393694609485A
:10318000FEF794FB002211461D20FEF799FC1D203E
:10319000FEF78CFC07B030BD003801400010024043
:1031A000004C0040000800487047FFB50646044642
:1031B0006036707A83B00D46202858D1002D0CD08F
:1031C0000598002809D00120A1680003814207D199
:1031D0002069002804D1E80702D0012007B0F0BD23
:1031E000307A012843D0012030720020E06621208F
:1031F0007072FEF717FC0190274640370598388219
:103200000598788218E0788A401E788206980090A7
:10321000002280212046019B01F0F5F8002818D1FA
:103220000120A1680003814202D12069002812D048
:103230002168287808856D1C788A0028E3D10698D3
:103240000090002240212046019B01F0DCF800287C
:1032500008D00320C2E728882168C005C00D088572
:10326000AD1CE9E72020707200203072B6E7022022
:10327000B4E77047FEE700000EB500211748009143
:103280000191154A02910260520542600822826053
:103290000122C2608161C161042301624361026154
:1032A0004162FF23C233C162836242630163FEF75E
:1032B0002BF90A20009001200003019000040290E5
:1032C00069460648FEF786F80B20009069460348D9
:1032D000FEF780F80EBD00000024014090010020A0
:1032E000F0B587B014216846FCF744FF6548406993
:1032F0000121C90408436349486148690121C9049F
:10330000084005905F484169012080055D4A0143FE
:103310005161516901400591516940110143516169
:103320005169014005915169400001435161516962
:10333000014010460591416901200005014351619A
:103340005169514D01400591002229464F48FEF731
:1033500062FB4F4F092000223946C006FEF75BFB97
:103360000721002209024B48FEF755FB00220421E9
:103370004948FEF750FB01204003002400900194CF
:10338000694602944148FEF791FA03260096694681
:103390003E4801960294FEF789FA009501250294B1
:1033A00069463A4801950394FEF780FA022000909E
:1033B0000920019469460294C006FEF777FA0920B5
:1033C00002946946C006009701950394FEF76EFAD1
:1033D000802000900920694601960294C006FEF7FD
:1033E00065FA2E482E4F00906946019702942948AD
:1033F000FEF75CFA072000020090029469460195EE
:1034000003942448FEF752FA680300900194694639
:1034100002942048FEF74AFAE80200900920694623
:1034200001970294C006FEF741FA0420009002942E
:103430006946019503941848FEF738FAC0200090B9
:10344000122001A961C1694612480495FEF72EFABF
:10345000002211460520FEF733FB0520FEF726FB70
:10346000002211460620FEF72BFB0620FEF71EFB6E
:10347000002211460720FEF723FB0720FEF716FB6C
:1034800007B0F0BD001002403C10000000080048EA
:103490001081000000040048000C004806500000A5
:1034A0000000111010B50F480D490160FF210531D2
:1034B000416000210722816012020161C260012285
:1034C000416152028261016230224162C2618162C5
:1034D0000722C262016308214163FEF749FF10BD64
:1034E00000300140FC01002030B58FB00024099469
:1034F0000A940B94142104A80C94FCF73BFE03944B
:1035000021480094019402940D941E490E94016088
:103510000C21846041600461FF214461B931846100
:10352000C160FFF775FA01200003099009A9164848
:10353000FFF7CEFA1448FFF7D2FB04200490602076
:1035400002250590079404A9069508940E48FFF7F4
:10355000DDFC00940294002269460B480195039417
:10356000FFF72DFB012001900422694600950648D3
:10357000FFF725FB0D940DA903480E94FFF724FADD
:103580000FB030BD00400140E002002010B58EB009
:1035900000240794089409940A940B941C2168460B
:1035A0000C94FCF7E7FD012118488907016006210A
:1035B00084604160FF2104612C318461C160FFF7A8
:1035C00027FA01200003079007A91048FFF780FAA7
:1035D0000E48FFF757FC0B940BA90C480C94FFF70F
:1035E000F3F960200090019402940022694604944B
:1035F0000648FFF7DFFB0C2269460448FFF7DAFBB9
:103600000248FFF787FB0EB010BD000060020020EB
:1036100010B58EB000240794089409940A940B9472
:103620001C2168460C94FCF7A5FD19481749016058
:10363000152184604160046164218461C160FFF7E9
:10364000E7F901200003079007A91148FFF740FAA6
:103650000F48FFF717FC0B940BA90D480C94FFF7CC
:10366000B3F9602000900194029408226946049402
:103670000748FFF79FFB0C2269460548FFF79AFBB6
:103680000348FFF747FB0EB010BD000000040040E8
:10369000A002002010B50A4808490160E121490252
:1036A000416000218160C16001618161C1610C22C2
:1036B000016242614162FFF7E3FC10BD0038014046
:1036C0002003002010B50A4808490160E1214902A1
:1036D000416000218160C16001618161C1610C2292
:1036E000016242614162FFF7CBFC10BD004C00401B
:1036F0009003002010B5114C0128216809D0002842
:1037000010D0022814D0032815D0042809D119207C
:103710000FE06520C8636420FEF7ADF8084901207A
:10372000887010BDFA20FEF7A6F80020216800E09E
:103730004B20C86310BD3220FBE70000A002002030
:1037400000000020704700008307FF22DB0E9A4034
:103750008907090E994000280BDA0007000F083886
:10376000830808489B001818C36993430B43C3613F
:103770007047830804489B001B181868904308434F
:103780001860704700ED00E000E400E070470109B8
:103790000A2200075143000F4018C0B2704770B5AD
:1037A00004460068C168490613D40021C943C160BA
:1037B000FEF738F97D260546F60006E0FEF732F9F9
:1037C000401BB04201D9032070BD2068C06840068C
:1037D000F4D5002070BD0000FEB504460121FDF7C0
:1037E0007DFD3220FEF747F800212046FDF776FDEB
:1037F000354D0320FF262870F53633460122294631
:103800003248FEF7EDFE00272F703346012229468D
:103810002E48FEF7E5FE2F703346012229462B483D
:10382000FEF7DEFE2F703346012229462748FEF7B9
:10383000D7FE64230422E9182448FEF725FE01215F
:103840002046FDF74BFD28466430FCF7D6FC050208
:103850001F482D0AA10045501B496431022C04D099
:10386000032C0CD0012C14D02CE00A784B788978EA
:10387000029200910193224616A1836812E00A7811
:103880004B78897802920091019322461FA1C36868
:1038900008E00A784B788978019302920091436896
:1038A000224629A10848843800F058FF0648843889
:1038B000FCF77FFC82B20449054833468439D83886
:1038C000FFF773FC2846FEBDC8000020FC01002065
:1038D00068040020526561642043535B25645D20C9
:1038E000205B43535F526F757465725D20202076B4
:1038F000616C5B256C645D202D20253032582D25B0
:103900003032582025303258200D0A00526561644B
:103910002043535B25645D20205B43535F417070FF
:103920006C696361746F725D20202076616C5B2529
:103930006C645D202D20253032582D2530325820E2
:1039400025303258200D0A00526561642043535BD4
:1039500025645D20205B43535F4D63755D2020200F
:1039600076616C5B256C645D202D20253032582DEE
:10397000253032582025303258200D0A0000000032
:10398000F7B504464068FF26053682B01546B042BA
:103990000CD10121A068C903884202D04911884294
:1039A00004D1206801684022914301600095002203
:1039B00080212046039B00F090F82027002813D197
:1039C0006068B04216D1A068B902884202D049119D
:1039D00088420FD103210095002249022046039B13
:1039E00000F030F8002805D0206E38432066032010
:1039F00005B0F0BD0020FBE7F8B50F460B461546B5
:103A00000092032104460022C90200F01BF8202680
:103A1000002812D13B46002280212046009500F06C
:103A20005CF8002809D103213B46002249022046C8
:103A3000009500F007F8002803D0206E3043206680
:103A40000320F8BDF8B51D4617460E4604463DE076
:103A5000032149028E4205D1002F03D1017B684624
:103A600001700078681C31D0002D05D0FDF7DAFF19
:103A70000699401AA84229D320684168E022914360
:103A800041606068C11FFD390CD10121A068C903E4
:103A9000884202D04911884204D12068016840223E
:103AA000914301600120A16A4003814207D121684E
:103AB0000A6882430A6021680A6802430A6001209A
:103AC00040346077002020770320F8BD20688168AB
:103AD0003140B942BCD10020F8BDF8B51D461746AB
:103AE0000E46044633E0681C31D0002D05D0FDF7AA
:103AF00099FF0699401AA84229D320684168E0221C
:103B0000914341606068C11FFD390CD10121A0685B
:103B1000C903884202D04911884204D12068016853
:103B20004022914301600120A16A4003814207D1F4
:103B300021680A6882430A6021680A6802430A60B1
:103B4000012040346077002020770320F8BD2068F2
:103B500081683046884304D00020B842C3D1002099
:103B6000F8BD0120F9E7704710B5FDF761FF10BD02
:103B700010B598B034216846FCF7FCFA0024149480
:103B8000159416941C210DA81794FCF7F3FA28201D
:103B9000009001200890079009946846FEF728F9E4
:103BA000072014900320159016940121179414A84F
:103BB000FEF71AF804480D90C0110E900F940DA84E
:103BC000FDF782FF18B010BD010001001248016826
:103BD0000122114301604168104A114041600168AF
:103BE0000F4A114001600168012292049143016073
:103BF00041683F22120491434160C16A09090901E9
:103C0000C162016B074A11400163416B49084900D9
:103C10004163002181607047001002400CB8FF082A
:103C2000FFFFF6FE2CFEFCFFF0B502681D4B0124E1
:103C3000A4071D4D984203D0A04201D0A84203D151
:103C40007026B2434E683243184E194F98420DD039
:103C5000A0420BD0A84209D0164CA04206D0B042D8
:103C600004D0B84202D0144CA04204D10324240250
:103C7000A243CC6822438024A2434C6922430260C1
:103C80008A68C2620A688262984206D0B04204D052
:103C9000B84202D0084A904201D10969016301216A
:103CA0004161F0BD002C0140000400400040014093
:103CB00000440140002000400048014010B50123AD
:103CC000046A8B409C430462036A8A401343036284
:103CD00010BD30B58468FF252D021B021343AC4391
:103CE0000B432343836030BD826870239A430A43A9
:103CF00007210A4382607047F0B5026A52085200F9
:103D00000262056A436882697024A24392080C68C3
:103D100092001443022295438A68164E2A43144D9A
:103D2000A84207D0B04205D0134FB84202D0134F7B
:103D3000B84206D10827BA43CF68174304229743F5
:103D40003A46A84207D0B04205D00B4DA84202D057
:103D50000A4DA84206D103252D02AB434D691D43F0
:103D60008B692B4343608461496841630262F0BD03
:103D7000002C014000400140004401400048014047
:103D800070B5026A10239A430262056A4268836929
:103D900073242402A3430C6824021C4320239D4364
:103DA0008B681B012B43124DA84208D11D46CB68DE
:103DB0008026B5431B012B434025AB4308E00D4D46
:103DC000A84205D00C4DA84202D00C4DA84208D103
:103DD0000325AD02AA434D69AD0015438A699200DF
:103DE0002A434260846149688163036270BD0000B8
:103DF000002C0140004001400044014000480140C7
:103E000070B5026AFF2301339A430262056A436870
:103E1000C2697024A24392080C68920014430122E4
:103E2000520295438A6812022A43124DA84208D1D1
:103E30001546CA68C614B54312022A430515AA439B
:103E400008E00D4DA84205D00C4DA84202D00C4D03
:103E5000A84208D103252D03AB434D692D011D4315
:103E60008B691B012B434360C4614968C1630262D3
:103E700070BD0000002C01400040014000440140A2
:103E80000048014030B5026A01231B039A430262D5
:103E9000046A4268C36973252D02AB430D682D0285
:103EA0001D4301235B039C438B681B0323430C4C82
:103EB000A04208D00B4CA04205D00B4CA04202D02F
:103EC0000A4CA04205D10124A403A2434C69A401D9
:103ED00022434260C56149680164036230BD00004D
:103EE000002C0140004001400044014000480140D6
:103EF00070B50468A26870239A434B681343DB08CB
:103F00000A68DB001A43A2604A6813071B0F0ED130
:103F10001211130000F04DFC080B0B0B0B0C1D23B2
:103F2000050B0B698A68C9680068FFF7D2FE70BD8F
:103F30000268136A146A6408640014620468A2695F
:103F40000969F025AA4309011143A16100680362D0
:103F500070BD0A698968006800F007F870BD0A69D9
:103F60008968006800F03EF870BD30B5036A046AE5
:103F70006408640004628469F025AC4312012243A2
:103F80000A24A3430B438261036230BD70B5046A07
:103F90006408640004628469056A0F4EB04209D067
:103FA0000126B607B04205D00C4EB04202D00C4EEE
:103FB000B04202D1A408A40000E001221443F02280
:103FC00094431A07120E0A2322439D4319402943A2
:103FD0008261016270BD0000002C014000040040BD
:103FE0000040014030B5036A1024A3430362846992
:103FF000036A0F252D031203AC432243A024A343DD
:10400000090119438261016230BD70B5046A10254F
:10401000AC4304628569046A03263602B543120282
:104020002A430F252D031B071B0CAA431343A02271
:1040300009019443114021438361016270BD10B5B1
:10404000818CC90707D001684A6801235B049A4341
:10405000836A1A434A60818C890707D501684A68D8
:1040600001231B049A43C36A1A434A60818C49079F
:1040700007D501684A6801239B049A43036B1A43DE
:104080004A60818C090707D501684A680123DB0370
:104090009A43436B1A434A60818CC90607D502686C
:1040A000916801231B039943836B19439160818CB1
:1040B000890607D501688A6801235B039A43C36BAD
:1040C0001A438A60818C490612D503685A68012117
:1040D0000905046C8A4322435A60026C8A4207D164
:1040E0000268516803235B059943436C194351608F
:1040F000818C090607D501684A680123DB04806CBE
:104100009A4302434A6010BDF8B500260446C666CD
:10411000FDF788FC054616492068884202D01549FB
:1041200088421DD10068144F000709D501212B4694
:10413000002249052046009700F065F900280DD1BE
:104140002068006840070BD501212B460022890515
:104150002046009700F057F9002801D00320F8BD51
:10416000202060346072A07226720020F8BD00002A
:104170000038014000440040FFFFFF0110B5406AD5
:104180000022014640314A834A82FEF7DEFE10BD1E
:1041900001680A68FF2321339A430A6001688A682C
:1041A000520852008A60202160308172704710B539
:1041B00001680A6840239A430A60202269210A5450
:1041C000FFF757F8002010BD70B502464032034695
:1041D0006033948B9D7A0168222D05D0886908226E
:1041E00010438861022070BD898C012685683603E2
:1041F000B54202D10569002D0BD02140446D651CEC
:1042000045652170518B491E0904090C518307D063
:1042100015E0456D21402980416D891C4165F1E71C
:1042200001680A68FF242134A2430A6001688A6891
:10423000520852008A6020219972FEF7B5FF0020D3
:1042400070BD0000F8B504462369A268E5691A4309
:10425000636910202B43002125681A432B680E4602
:10426000474F3B4013432B6023685A6803252D03B7
:10427000AA43E5682A435A60236AA26925681A435B
:10428000AB680B273F02BB431343AB603D4F256830
:104290003D4B0203BD420AD11B6B9B079B0F20D0F5
:1042A000012B14D0022B14D0032B1BD10DE0374F60
:1042B000BD4210D11B6B03273F043B4011D09B1A1A
:1042C00005D09B1A05D093420CD102200AE00420AD
:1042D00008E0082006E02E4B9D4202D02D4B9D4267
:1042E00000D100200123E769DB039F4222D100288F
:1042F0000CD002280DD0042813D0082817D001268E
:104300000A0912010807400F10432EE0FDF71CFDBB
:1043100009E06168204A48088018FBF7E9FE81B28D
:10432000EEE7FDF721FD616840004A08F4E76168A7
:104330004808F1E7002808D0022809D004280CD04A
:10434000082815D001263046F8BDFDF7FDFC06E033
:104350006168124A480880180DE0FDF705FD6168A4
:104360004A088018FBF7C4FE80B22168C860EAE7FB
:1043700061684808C018FBF7BBFE80B2E860E2E75E
:10438000F369FFEF00380140001002400044004094
:1043900000480040004C00400024F40000127A0065
:1043A0006921095C212901D0022070470246403270
:1043B000518A002912D0012381681B03994202D13E
:1043C0000169002915D0C16C4B1CC36400680978D1
:1043D0000185508A401E50820020704701680A689B
:1043E00080239A430A6000680168402211430160FB
:1043F000F2E7C16C03680988C905C90D1985C16C4C
:10440000891CC164E5E7FFB581B017460E46044636
:104410000A9D1DE0681C1BD0002D05D0FDF702FB96
:104420000499401AA84213D920680168FF22A132DA
:10443000914301602068816849084900816020201B
:1044400060346072A07200202072032005B0F0BDBD
:104450002068C1693046884304D00020B842D9D0D2
:104460000020F3E70120F9E710B50248FEF76EFDE2
:1044700010BD00002003002070B51448FEF766FD53
:1044800012480068818CCBB2038512481049047829
:1044900000220D190B556A70002B08D0641CE4B281
:1044A00001250D4E04700A2B0BD00D2B09D00B4C9F
:1044B00023785B1C23700378642B01D302704A704D
:1044C00070BD35700B195A70F1E7000090030020A1
:1044D000000400200400002006000020340000201A
:1044E000F8B5794D0F46064668710121FCF7F6FED6
:1044F0000A20FDF7C0F900216879FCF7EFFE0220E1
:10450000FDF7B9F9714C06202070FF23F533012225
:1045100021466F48FEF764F801216879FCF7DEFE5A
:104520001420FDF7A8F900216879FCF7D7FE0220D6
:10453000FDF7A1F920202070FF23F5330122214649
:104540006348FEF74DF800202070FF23F533012269
:1045500021465F48FEF744F800202070FF23F53322
:10456000012221465A48FEF73BF800202070FF2325
:10457000F533012221465648FEF732F801216879C9
:10458000FCF7ACFE3220FDF776F9012E04D0022EA6
:1045900006D0032E08D019E03B4632464DA106E076
:1045A0003B46324652A102E03B46324659A14748BB
:1045B000843800F0D3F845488438FBF7FAFD4349C6
:1045C00082B25E4B84395E48FEF7EFFD00216879C8
:1045D000FCF784FE0220FDF74EF906202070FF2331
:1045E000F533012239493A48FDF7FAFF012168798C
:1045F000FCF774FE1420FDF73EF900216879FCF702
:104600006DFE0220FDF737F902202070FF23F533FD
:1046100001222E492E48FDF7E3FF00202070FF23E2
:10462000F533012229492A48FDF7DAFF00202070DE
:10463000FF23F533012225492548FDF7D1FF00204E
:104640002070FF23F533012220492148FDF7C8FFE0
:10465000FF232770F53301221C491D48FDF7C0FFD9
:1046600038122070FF23F533012218491848FDF74E
:10467000B7FF38142070FF23F53301221349144883
:10468000FDF7AEFF01216879FCF728FE3220FDF727
:10469000F2F801213046FCF721FEFA20FDF7EBF895
:1046A0000A483A4627A1843800F058F80748843869
:1046B000FBF77FFD054982B2204B84392048FEF785
:1046C00074FD0020F8BD000000000020C80000209C
:1046D000FC01002043535B25645D205B4D43555D29
:1046E0002077726974696E6720256C64200D0A005A
:1046F00043535B25645D205B43535F526F75746564
:10470000725D2077726974696E6720256C64200D74
:104710000A00000043535B25645D205B43535F4107
:1047200070706C696361746F725D2077726974690F
:104730006E6720256C64200D0A00000088130000BD
:104740009003002077726974652064617461312080
:104750002028256C642920200D0A00000FB410B514
:1047600004A9074B02AA039800F0FEF8044602A928
:10477000002000F095FC204610BC08BC04B018478F
:10478000A15000082021020C01D010211046020A7D
:1047900001D010460839020901D01046091F8208CD
:1047A00001D01046891E420801D0881E7047081AA1
:1047B000704730B47446641E2578641CAB4200D246
:1047C0001D46635D5B00E31830BC18470048704726
:1047D0004000002002E008C8121F08C1002AFAD1D8
:1047E00070477047002001E001C1121F002AFBD171
:1047F00070470000F0B51FB486B00998089A030D01
:104800000021024314D05148514A1818504305144E
:104810001198012810981AD0281A401C00264D4FD4
:104820004D49009601910490002812DA444211E0AB
:104830001198012449A3012801D11098C143069879
:10484000119A84600360C26041600BB0F0BD4042C9
:10485000E4E70446210500203F4A001C5141039132
:10486000029012E0E00707D032463B4601990098DB
:10487000FBF760FE0191009032463B461046194618
:10488000FBF758FE06460F466410002CEAD1049848
:10489000039B0028029A0999089806DAFBF74AFE5A
:1048A000019B009AFBF746FE05E0FCF731F8019BFF
:1048B000009AFCF72DF804460E460022284BFCF720
:1048C000BFF803D80020C043014607E00022254B73
:1048D00020463146FBF77CFDFCF792F8102409E0F6
:1048E000002C0ADB0A220023FBF7E7FE079B30328D
:1048F0001A55641E02460A43F2D11122641C079B1A
:10490000121B1C19119B012B03D0012308430ED14C
:104910000AE0084304D0112010900020119077E79E
:104920001098151A6D1E0BE01098824202DD0023CC
:104930006D1C03E0824201DA00236D1E002BEED0D5
:10494000069811998260C16030C07EE701FCFFFFCC
:10495000104D0000000014400000F03F3000000047
:104960000000F0430000E03FFFB597B00646002589
:1049700018E2252877D100242746FD49049400E059
:104980000443761C32780120203A90400842F7D147
:1049900030782A280ED00222307801463039092991
:1049A00016D804990A235943303940181443761C09
:1049B0000490F1E7189802C804911890002904DACD
:1049C0000120400304434842049002200443761C23
:1049D00030782E2814D1042004437078761C2A28BD
:1049E00009D11898761C80C8189009E00A214F4315
:1049F000303FC719761C3078014630390929F5D97E
:104A000030786C2810D006DC4C281AD068280ED0DC
:104A10006A2817D104E0742813D07A2812D110E044
:104A20000120400504430CE00121090501E00321B8
:104A300009050C437178814203D101200005241837
:104A4000761C761C3078119066280BD013DC582821
:104A50007DD009DC00287BD04528F6D04628F4D04C
:104A600047281AD1A5E118E0632835D0642870D012
:104A7000652812D19DE170286CD008DC6728F1D040
:104A800069287BD06E280DD06F2806D1BAE0732834
:104A90002ED0752871D0782859D01A9A1999904734
:104AA0006D1C7EE16002400F022809D003280DD062
:104AB0000428189801680DD00D60001D189070E151
:104AC0001898EA1701680D604A60F6E718980168BF
:104AD0000D80F2E70D70F0E718986A4601781172C0
:104AE000001D18900020507202A80090012005E0DF
:104AF000189802C8189000200091C04361070DD596
:104B0000002101E00199491C0191B94212DA814268
:104B1000F8DB009A515C0029F4D10BE0002101E0A0
:104B20000199491C01918142FADB019A0099895C43
:104B30000029F5D1019904981A9B471A2146384655
:104B4000199A00F097FA0199401945180BE04FE0C7
:104B50002CE113E04EE0009800990078491C009188
:104B60001A9A199990470198401E0190401CF2D161
:104B7000214638461A9B199A10E137E00A20002195
:104B8000009001916002410F022907D0189A01CAD2
:104B90001892C2179446032908D00AE01898C01D3D
:104BA000C108C90005C91891944607E000B2C217B0
:104BB0009446042902D140B2C1178C4600226146B6
:104BC000944506DA0A460021404291418C462D2147
:104BD00002E0210504D52B216A461173012103E06F
:104BE000E10701D02021F7E7029155E00A200AE011
:104BF000102008E0102000900021042004430191BF
:104C0000082703E008200021019100906002410F75
:104C1000022907D0189A01CA189200229446032943
:104C200008D008E01898C01DC108C90005C918912E
:104C3000944603E080B2042900D1C0B20021029161
:104C4000210729D51199702906D0009A1021019BBE
:104C50004A401A4305D00EE040216A4611730121F3
:104C600008E06146014306D030216A46117311996C
:104C7000517302210291009A0821019B4A401A4374
:104C80000AD16146014301D1610705D530216A4649
:104C9000117301217F1E02911199582904D035A169
:104CA0000E910DA90D910DE037A1F9E76146019B29
:104CB000009AFBF702FD0E9B8C469B5C0D9A521EE0
:104CC0000D92137061460143F0D10D9805A9081AA1
:104CD00020300190600703D501200004844300E0E8
:104CE00001270198874201DD381A00E00020019970
:104CF00000904118029809180498401A0490E003A3
:104D000006D421461A9B199A049800F0B3F9451964
:104D1000002706E003A81A9AC05D199990476D1CF8
:104D20007F1C02988742F5DBE0030CD521461A9BD5
:104D3000199A049800F09EF9451904E01A9A302057
:104D4000199990476D1C0099481E00900029F5DCC8
:104D500008E00D980D990078491C0D911A9A19993F
:104D600090476D1C0199481E01900029F1DC63E118
:104D70000928010030313233343536373839616231
:104D800063646566000000003031323334353637F5
:104D900038394142434445460000000000F05AF9CA
:104DA0004519761C3078002800D0E2E528461BB073
:104DB000F0BD600700D406271898C01DC108C900BF
:104DC00048680A680831C30FDB071891190001D041
:104DD0009CA108E0210501D59BA104E0E10701D0D9
:104DE0009AA100E09AA1430011985B0810916528F0
:104DF0000CD006DC452809D046281DD0472841D1D3
:104E000041E0662818D067283CD13CE00021112FF2
:104E100001DB112000E0781C0191009008A911A885
:104E2000FFF7E8FC139905910021119A15927F1C58
:104E300012980197009150E00120C00703900120D3
:104E4000019008A9009711A8FFF7D4FC139A1499B0
:104E500005920022119B009212981593059A0192D7
:104E6000002901D0104602E0791C40180190381A40
:104E700001D5019804E04042401E0090781C01904A
:104E8000C01B029043E0012F00DA01270021112FFF
:104E900001DD112000E038460191009008A911A819
:104EA000FFF7A8FC13990591119A00211298159209
:104EB0000091019721070CD40599B94201DB0199B2
:104EC00000E00191012904DD159A491E515C302949
:104ED00006D0B84201DA011D05DA0121029115E080
:104EE0000199491EEDE7002805DC00994118009161
:104EF0000199091A03E0019A411C914200DD0191D8
:104F00000099401A401C02900120C007039020071E
:104F100006D402990198814202DB0020C04302902E
:104F200000206946C87707AF012103980337C907F6
:104F3000884224D0022011902B2012900398002840
:104F40000CDA404203902D20129007E00A210398CA
:104F5000FBF7CEF830317F1E039039701199481E4F
:104F600011900029F2DC03980028EFD1791E1298E5
:104F700008703078202108404530BF1E387006A8E0
:104F8000C01BC01D039010980078002800D001209D
:104F9000019941180298C017091803980918049834
:104FA000401A401E0490E00306D421461A9B199A29
:104FB000049800F05FF8451910980078002803D095
:104FC0001A9A199990476D1CE00324D521461A9B23
:104FD000199A049800F04EF845191CE00098002832
:104FE00007DB00990598884203DD1598405C199904
:104FF00001E0199930201A9A904700986D1C401CC6
:1050000000900298401E0290002804D11A9A2E2087
:10501000199990476D1C0199481E01900029DDDC0B
:1050200005E038781A9A7F1C199990476D1C0399EE
:10503000481E03900029F4DC21461A9B199A049813
:10504000ACE600002D0000002B0000002000000056
:1050500000000000F8B5044600251E4617468804E7
:1050600004D405E039462020B0476D1C641EF9D5F4
:105070002846F8BDFFB50446002581B01E46C8038A
:1050800001D5302700E02027880404D505E0384604
:105090000399B0476D1C641EF9D5284605B0F0BDD4
:1050A0000A68531C0B6010707047000070B51449FB
:1050B000CE680121C9058E4215DBFBF7CEFA114AF5
:1050C000114BFBF737FA05460C463046FBF7C5FA9D
:1050D0000E4A0F4BFBF72EFA2A462346FBF778F9C8
:1050E000FBF7CFFA70BD0D480A4D0B4C4088FBF71B
:1050F00094FA2946FBF7F1F82146FBF7E6F870BD74
:10510000000000207B14AE47E17A843FAE47E17A8D
:1051100014AEEF3F1F856B3E48E1C641A80000205A
:10512000BAB0FCF78DFCFEF723FDFEF7D9F8FEF7C9
:10513000A3F8FE49FE48002412C07F21016084606C
:10514000C460FF21046141600838FDF78DF8FEF767
:10515000A9F9FEF71BFAFEF75BFAFEF7C5F9FEF7B1
:1051600099FAFEF7AFFA6420FBF794FD0020F14FA7
:1051700003903C81BC61054602460790032107204D
:10518000FCF79EFC0720FCF791FC0022032107207E
:10519000FCF796FC0720FCF789FCE74E002204216F
:1051A0003046FCF738FC012208213046FCF733FC7E
:1051B000DF4EC4363068C46308213046FDF77EFEFA
:1051C0003068C4633146F0310868026820231A430E
:1051D00002600868026840210A4302603046A43831
:1051E000006802680A430260D4480B90D4480690D5
:1051F000D4484088FBF711FA0121C905884206DB33
:105200000B99FBF76AF80699FBF75FF8F860CEA3F5
:10521000D4A10CA8039AFFF7A1FA0CA8FAF7C9FFCA
:1052200082B264230CA9D548FDF7BFFF0CA8FAF79A
:10523000C0FF82B2D14864230CA97030FDF7B5FFDE
:1052400009201021C006FCF7E2FBFF20F530FCF737
:1052500012FBFF2091300390FBF7CEFD3C71002242
:10526000C749B348FCF7D2FFB24900222431B04805
:10527000FCF7AAFFC2488178009143780278C1A167
:1052800020A8FFF76BFA20A8FAF793FF82B2BB4879
:10529000642320A97030FDF788FF20A8FAF789FF62
:1052A00082B2B648642320A97030FDF77EFF0F203C
:1052B000FCF7E1FAB9480990002204219E48FCF766
:1052C000AAFB012208219C48FCF7A5FB0122510200
:1052D000B348FCF7A0FBA94E803E3068C46364204D
:1052E000FBF7D8FC3068C463BC617C70FA20FCF723
:1052F000C2FAFC70BC7000263C810320FEF76CFAF9
:10530000FBF77AFD3C710F20FCF7B5FAFBF72CFD9B
:1053100001287DD0A3A10CA8FFF720FA0CA8FAF76A
:1053200048FF82B232230CA99448FDF73EFFFF20CC
:10533000F530FCF7A0FAA0A10CA8FFF70FFA0CA813
:10534000FAF737FF82B232230CA98C48FDF72DFF04
:10535000FF20F530FCF78FFA99A17A486438FFF7FF
:10536000FDF978486438FAF724FF82B2754983481A
:10537000FF23F53364397030FDF717FF00246D4FBC
:1053800022467C61FC6104216B48BC61FCF743FB55
:10539000012208216848FCF73EFB012251028048A7
:1053A000FCF739FB754880380068C4636420FBF75C
:1053B00071FC724880380068C463BC617C70FA205C
:1053C000FCF759FAFC70BC7084A10CA8039AFFF793
:1053D000C5F90CA8FAF7EDFE82B264230CA9674860
:1053E000FDF7E3FE0CA8FAF7E4FE82B263486423FB
:1053F0000CA97030FDF7D9FE09201021C006FCF77A
:1054000006FB8248FCF737FA0320FEF7E5F900E0D7
:1054100037E10220FEF7E0F90120FEF7DDF95848F8
:105420001038C0687C61F86100281ADC78A10CA8EB
:10543000FFF794F90CA8FAF7BCFE82B232230CA94C
:105440004E48FDF7B2FE74A10CA8FFF787F90CA82F
:10545000FAF7AFFE82B2494832230CA97030FDF74B
:10546000A4FE78A10CA8FFF779F90CA8FAF7A1FE21
:1054700082B2424832230CA97030FDF796FE032019
:10548000FEF7AAF93E48764C1038C7683846FBF755
:10549000B9F82146FAF75EFF7249FAF71EFF254C6C
:1054A000E761FBF7C1F807463A466FA10CA8FFF782
:1054B00055F90CA8FAF77DFE82B232230CA92F48C9
:1054C000FDF773FE6420FCF7D6F93A4666A10CA8F6
:1054D000FFF744F90CA8FAF76CFE82B22748322392
:1054E0000CA97030FDF761FE6420FCF7C4F9104888
:1054F0004C38FCF74FF90E4864214C38FCF7EAF8B9
:105500000B484C38FBF7FCFF0E4F642138803846BF
:10551000E830FCF7DFF83846E830FBF7F1FF788039
:105520003846E830FCF764F93988A1E000280040EB
:10553000DC0100200000002000080048C9768A40F5
:105540003D0AD842A800002041726D656E7461204A
:1055500076657220382E302E33622030372F303966
:105560002F3139000D0A0D0A0D0A2A2A2A20257327
:105570002020202A2A2A0D0A0D0A000020030020DC
:105580007804002054696D65253032643A25303244
:10559000643A2530326423200000000070110100BD
:1055A00000040048247A414D20446973636F6E6E95
:1055B000656374656423000024616E2300000000AD
:1055C0004170706C696361746F7220636865636BAE
:1055D000206661696C640D0A000000000D0A0D0A66
:1055E0000D0A2A2A2A2041726D656E746120766543
:1055F0007220362E392032382F31302F3139202089
:10560000202A2A2A0D0A0D0A00000000C409000001
:1056100024463023000000000D0A20202A2A2A20D8
:105620004552524F522046302070756C736520727F
:10563000656D61696E696E672069732030200D0A9F
:10564000000000000D0A20202A2A2A2073746172AB
:1056500074206C6F6F70202A2A2A200D0A00000027
:1056600000B888470000C84224742564230D0A004E
:10567000AF208000814206D3F9A10CA8FFF76EF895
:1056800008E0F9A169E6FEA10CA8FFF767F8002081
:10569000FEF730F80CA8FAF78CFD82B264230CA94F
:1056A000F948FDF782FD0CA8FAF783FD82B2F648AF
:1056B00032230CA97038FDF778FD6420FCF7DBF885
:1056C000F2480B90F2480690F2484088FAF7A5FF9E
:1056D000EE49FAF702FEEE49FAF7F7FDFFF7E6FCAE
:1056E000E060FAF7A1FF0246EBA10CA8FFF736F83D
:1056F0000CA8FAF75EFD82B2E34832230CA9703899
:10570000FDF753FD00206061761CFBF775FB14214B
:105710003046FAF703FD039100297DD1E0A10CA8E2
:10572000A269FFF71BF80CA8FAF743FD82B2D6482E
:1057300032230CA97038FDF738FDC8213046FAF73E
:10574000EDFC002969D1D348E830FCF723F8D148B3
:105750006421E830FBF7BEFFCE48E830FBF7D0FE0F
:10576000CC4F642138803846E830FBF7B3FF384629
:10577000E830FBF7C5FE78803846E830FCF738F8AB
:105780007888FAF74AFF0B99FAF7A7FD0699FAF716
:105790009CFDFFF78BFCE0607888012D14D0FAF7B0
:1057A0003CFF0B99FAF799FD0699FAF78EFDFFF782
:1057B0007DFCE0603988AF208000814210D3BAA11F
:1057C0000CA8FEF7CBFF13E0FAF727FF0B99FAF7C7
:1057D00084FD0699FAF779FDB649FAF725FDE6E763
:1057E000B5A10CA8FEF7BAFF0020FDF783FF002546
:1057F0000CA8FAF7DEFC82B2A34832230CA9703859
:10580000FDF7D3FC0CA8FAF7D4FC82B232230CA922
:105810009D48FDF7CAFC01E0BBE01AE0E068FAF73A
:1058200003FF02469CA10CA8FEF798FF0CA8FAF70C
:10583000C0FC82B2944832230CA97038FDF7B5FC45
:105840000CA8FAF7B6FC82B232230CA98E48FDF7F9
:10585000ACFC6169E069471A0998874201DB0020C6
:105860000BE0FAF7CFFE02903846FAF7CBFE02992A
:10587000FAF770FD9349FAF730FD02907D20C000E1
:10588000874214DC3846C821FAF748FC00290ED1BB
:105890003A468DA10CA8FEF761FF0CA8FAF789FC27
:1058A00082B2794832230CA97038FDF77EFC029849
:1058B000FAF7D3FE02460B4685A10CA8FEF74EFF71
:1058C0000CA8FAF776FC82B232230CA96E48FDF7D9
:1058D0006CFC704881A102880CA8FEF73FFF0CA861
:1058E000FAF767FC82B232230CA96748FDF75DFC2A
:1058F00064213046FAF712FC002911D10298FAF718
:1059000093FE02467B490CA8FEF728FF0CA8FAF785
:1059100050FC82B25C4832230CA97038FDF745FC7C
:1059200073213046FAF7FAFB002932D1012D0ED04F
:105930000020206170A10CA8FEF710FF0CA8FAF758
:1059400038FC82B2504832230CA970381FE020691D
:10595000012801DB6AA104E00020FDF7CBFE002551
:1059600065A10CA8FEF7FAFE002020610CA8FAF74A
:1059700020FC82B2444832230CA97038FDF715FC94
:105980000CA8FAF716FC82B232230CA93E48FDF7A8
:105990000CFC6078002802D0012802D005E05AA152
:1059A00000E05AA10CA8FEF7D9FE039900291DD1E9
:1059B00022696169A06905910CA90091049001AB6D
:1059C00025C33448324653496438079BFEF7C6FE68
:1059D00030486438FAF7EDFB2E4982B2322364393D
:1059E0002948FDF7E2FB0798401C07906169E069D0
:1059F000401A33D50020FDF77DFE00253220FBF74D
:105A00003AFF244844A16438FEF7A8FE21486438D0
:105A1000FAF7CFFB1F4982B2322364391A48FDF7E7
:105A2000C4FB194F0021D8370320F960FEF758FD59
:105A30000220F968FEF754FD0120F968FEF750FDD9
:105A4000F868E0610320FDF7C7FE3CA10CA8FEF753
:105A500085FE0CA8FAF7ADFB82B273E07AE0000095
:105A600024704F2E4B2300004170706C6963617489
:105A70006F7220636865636B20706173730D0A0039
:105A800024704C4F57230000900300201F856B3E6D
:105A900048E1C641A800002024622564230D0A00C5
:105AA00024632564230D0A0024704F2E4B230D0A16
:105AB000000000000000884124704C4F57230D0A5D
:105AC000000000000000C84224462564230D0A009F
:105AD000247425332E3066230D0A00004144435BB5
